{
  "_format": "hh-sol-artifact-1",
  "contractName": "DegenToken",
  "sourceName": "contracts/DegenToken.sol",
  "abi": [
    {
      "inputs": [],
      "stateMutability": "nonpayable",
      "type": "constructor"
    },
    {
      "anonymous": false,
      "inputs": [
        {
          "indexed": true,
          "internalType": "address",
          "name": "owner",
          "type": "address"
        },
        {
          "indexed": true,
          "internalType": "address",
          "name": "spender",
          "type": "address"
        },
        {
          "indexed": false,
          "internalType": "uint256",
          "name": "value",
          "type": "uint256"
        }
      ],
      "name": "Approval",
      "type": "event"
    },
    {
      "anonymous": false,
      "inputs": [
        {
          "components": [
            {
              "internalType": "uint256",
              "name": "id",
              "type": "uint256"
            },
            {
              "internalType": "string",
              "name": "name",
              "type": "string"
            },
            {
              "internalType": "uint256",
              "name": "amount",
              "type": "uint256"
            }
          ],
          "indexed": false,
          "internalType": "struct DegenToken.NFT",
          "name": "nft",
          "type": "tuple"
        }
      ],
      "name": "NFTRedeemed",
      "type": "event"
    },
    {
      "anonymous": false,
      "inputs": [
        {
          "indexed": true,
          "internalType": "address",
          "name": "previousOwner",
          "type": "address"
        },
        {
          "indexed": true,
          "internalType": "address",
          "name": "newOwner",
          "type": "address"
        }
      ],
      "name": "OwnershipTransferred",
      "type": "event"
    },
    {
      "anonymous": false,
      "inputs": [
        {
          "indexed": true,
          "internalType": "address",
          "name": "from",
          "type": "address"
        },
        {
          "indexed": true,
          "internalType": "address",
          "name": "to",
          "type": "address"
        },
        {
          "indexed": false,
          "internalType": "uint256",
          "name": "value",
          "type": "uint256"
        }
      ],
      "name": "Transfer",
      "type": "event"
    },
    {
      "inputs": [
        {
          "internalType": "uint256",
          "name": "",
          "type": "uint256"
        }
      ],
      "name": "NFTs",
      "outputs": [
        {
          "internalType": "uint256",
          "name": "id",
          "type": "uint256"
        },
        {
          "internalType": "string",
          "name": "name",
          "type": "string"
        },
        {
          "internalType": "uint256",
          "name": "amount",
          "type": "uint256"
        }
      ],
      "stateMutability": "view",
      "type": "function"
    },
    {
      "inputs": [
        {
          "internalType": "address",
          "name": "owner",
          "type": "address"
        },
        {
          "internalType": "address",
          "name": "spender",
          "type": "address"
        }
      ],
      "name": "allowance",
      "outputs": [
        {
          "internalType": "uint256",
          "name": "",
          "type": "uint256"
        }
      ],
      "stateMutability": "view",
      "type": "function"
    },
    {
      "inputs": [
        {
          "internalType": "address",
          "name": "spender",
          "type": "address"
        },
        {
          "internalType": "uint256",
          "name": "amount",
          "type": "uint256"
        }
      ],
      "name": "approve",
      "outputs": [
        {
          "internalType": "bool",
          "name": "",
          "type": "bool"
        }
      ],
      "stateMutability": "nonpayable",
      "type": "function"
    },
    {
      "inputs": [
        {
          "internalType": "address",
          "name": "account",
          "type": "address"
        }
      ],
      "name": "balanceOf",
      "outputs": [
        {
          "internalType": "uint256",
          "name": "",
          "type": "uint256"
        }
      ],
      "stateMutability": "view",
      "type": "function"
    },
    {
      "inputs": [
        {
          "internalType": "uint256",
          "name": "amount",
          "type": "uint256"
        }
      ],
      "name": "burnTokens",
      "outputs": [],
      "stateMutability": "nonpayable",
      "type": "function"
    },
    {
      "inputs": [],
      "name": "checkBalance",
      "outputs": [
        {
          "internalType": "uint256",
          "name": "",
          "type": "uint256"
        }
      ],
      "stateMutability": "view",
      "type": "function"
    },
    {
      "inputs": [],
      "name": "decimals",
      "outputs": [
        {
          "internalType": "uint8",
          "name": "",
          "type": "uint8"
        }
      ],
      "stateMutability": "view",
      "type": "function"
    },
    {
      "inputs": [
        {
          "internalType": "address",
          "name": "spender",
          "type": "address"
        },
        {
          "internalType": "uint256",
          "name": "subtractedValue",
          "type": "uint256"
        }
      ],
      "name": "decreaseAllowance",
      "outputs": [
        {
          "internalType": "bool",
          "name": "",
          "type": "bool"
        }
      ],
      "stateMutability": "nonpayable",
      "type": "function"
    },
    {
      "inputs": [
        {
          "internalType": "address",
          "name": "spender",
          "type": "address"
        },
        {
          "internalType": "uint256",
          "name": "addedValue",
          "type": "uint256"
        }
      ],
      "name": "increaseAllowance",
      "outputs": [
        {
          "internalType": "bool",
          "name": "",
          "type": "bool"
        }
      ],
      "stateMutability": "nonpayable",
      "type": "function"
    },
    {
      "inputs": [
        {
          "internalType": "address",
          "name": "to",
          "type": "address"
        },
        {
          "internalType": "uint256",
          "name": "amount",
          "type": "uint256"
        }
      ],
      "name": "mintTokens",
      "outputs": [],
      "stateMutability": "nonpayable",
      "type": "function"
    },
    {
      "inputs": [],
      "name": "name",
      "outputs": [
        {
          "internalType": "string",
          "name": "",
          "type": "string"
        }
      ],
      "stateMutability": "view",
      "type": "function"
    },
    {
      "inputs": [],
      "name": "owner",
      "outputs": [
        {
          "internalType": "address",
          "name": "",
          "type": "address"
        }
      ],
      "stateMutability": "view",
      "type": "function"
    },
    {
      "inputs": [
        {
          "internalType": "uint256",
          "name": "choice",
          "type": "uint256"
        }
      ],
      "name": "redeemTokens",
      "outputs": [],
      "stateMutability": "nonpayable",
      "type": "function"
    },
    {
      "inputs": [],
      "name": "renounceOwnership",
      "outputs": [],
      "stateMutability": "nonpayable",
      "type": "function"
    },
    {
      "inputs": [],
      "name": "showRedeemPrizes",
      "outputs": [
        {
          "components": [
            {
              "internalType": "uint256",
              "name": "id",
              "type": "uint256"
            },
            {
              "internalType": "string",
              "name": "name",
              "type": "string"
            },
            {
              "internalType": "uint256",
              "name": "amount",
              "type": "uint256"
            }
          ],
          "internalType": "struct DegenToken.NFT[]",
          "name": "",
          "type": "tuple[]"
        }
      ],
      "stateMutability": "view",
      "type": "function"
    },
    {
      "inputs": [],
      "name": "symbol",
      "outputs": [
        {
          "internalType": "string",
          "name": "",
          "type": "string"
        }
      ],
      "stateMutability": "view",
      "type": "function"
    },
    {
      "inputs": [],
      "name": "totalSupply",
      "outputs": [
        {
          "internalType": "uint256",
          "name": "",
          "type": "uint256"
        }
      ],
      "stateMutability": "view",
      "type": "function"
    },
    {
      "inputs": [
        {
          "internalType": "address",
          "name": "to",
          "type": "address"
        },
        {
          "internalType": "uint256",
          "name": "amount",
          "type": "uint256"
        }
      ],
      "name": "transfer",
      "outputs": [
        {
          "internalType": "bool",
          "name": "",
          "type": "bool"
        }
      ],
      "stateMutability": "nonpayable",
      "type": "function"
    },
    {
      "inputs": [
        {
          "internalType": "address",
          "name": "from",
          "type": "address"
        },
        {
          "internalType": "address",
          "name": "to",
          "type": "address"
        },
        {
          "internalType": "uint256",
          "name": "amount",
          "type": "uint256"
        }
      ],
      "name": "transferFrom",
      "outputs": [
        {
          "internalType": "bool",
          "name": "",
          "type": "bool"
        }
      ],
      "stateMutability": "nonpayable",
      "type": "function"
    },
    {
      "inputs": [
        {
          "internalType": "address",
          "name": "newOwner",
          "type": "address"
        }
      ],
      "name": "transferOwnership",
      "outputs": [],
      "stateMutability": "nonpayable",
      "type": "function"
    },
    {
      "inputs": [
        {
          "internalType": "address",
          "name": "recipient",
          "type": "address"
        },
        {
          "internalType": "uint256",
          "name": "amount",
          "type": "uint256"
        }
      ],
      "name": "transferTokens",
      "outputs": [],
      "stateMutability": "nonpayable",
      "type": "function"
    }
  ],
  "bytecode": "0x60806040523480156200001157600080fd5b506040518060400160405280600581526020017f446567656e0000000000000000000000000000000000000000000000000000008152506040518060400160405280600381526020017f44474e000000000000000000000000000000000000000000000000000000000081525081600390816200008f919062000613565b508060049081620000a1919062000613565b505050620000c4620000b8620002cb60201b60201c565b620002d360201b60201c565b60066040518060600160405280600181526020016040518060400160405280601181526020017f447261676f6e6669726520416d756c657400000000000000000000000000000081525081526020016064815250908060018154018082558091505060019003906000526020600020906003020160009091909190915060008201518160000155602082015181600101908162000162919062000613565b5060408201518160020155505060066040518060600160405280600281526020016040518060400160405280601881526020017f43656c65737469616c20426c616465206f6620556e69747900000000000000008152508152602001609681525090806001815401808255809150506001900390600052602060002090600302016000909190919091506000820151816000015560208201518160010190816200020d919062000613565b5060408201518160020155505060066040518060600160405280600381526020016040518060400160405280601981526020017f456e6368616e7465642050686f656e6978204665617468657200000000000000815250815260200160c88152509080600181540180825580915050600190039060005260206000209060030201600090919091909150600082015181600001556020820151816001019081620002b8919062000613565b50604082015181600201555050620006fa565b600033905090565b6000600560009054906101000a900473ffffffffffffffffffffffffffffffffffffffff16905081600560006101000a81548173ffffffffffffffffffffffffffffffffffffffff021916908373ffffffffffffffffffffffffffffffffffffffff1602179055508173ffffffffffffffffffffffffffffffffffffffff168173ffffffffffffffffffffffffffffffffffffffff167f8be0079c531659141344cd1fd0a4f28419497f9722a3daafe3b4186f6b6457e060405160405180910390a35050565b600081519050919050565b7f4e487b7100000000000000000000000000000000000000000000000000000000600052604160045260246000fd5b7f4e487b7100000000000000000000000000000000000000000000000000000000600052602260045260246000fd5b600060028204905060018216806200041b57607f821691505b602082108103620004315762000430620003d3565b5b50919050565b60008190508160005260206000209050919050565b60006020601f8301049050919050565b600082821b905092915050565b6000600883026200049b7fffffffffffffffffffffffffffffffffffffffffffffffffffffffffffffffff826200045c565b620004a786836200045c565b95508019841693508086168417925050509392505050565b6000819050919050565b6000819050919050565b6000620004f4620004ee620004e884620004bf565b620004c9565b620004bf565b9050919050565b6000819050919050565b6200051083620004d3565b620005286200051f82620004fb565b84845462000469565b825550505050565b600090565b6200053f62000530565b6200054c81848462000505565b505050565b5b8181101562000574576200056860008262000535565b60018101905062000552565b5050565b601f821115620005c3576200058d8162000437565b62000598846200044c565b81016020851015620005a8578190505b620005c0620005b7856200044c565b83018262000551565b50505b505050565b600082821c905092915050565b6000620005e860001984600802620005c8565b1980831691505092915050565b6000620006038383620005d5565b9150826002028217905092915050565b6200061e8262000399565b67ffffffffffffffff8111156200063a5762000639620003a4565b5b62000646825462000402565b6200065382828562000578565b600060209050601f8311600181146200068b576000841562000676578287015190505b620006828582620005f5565b865550620006f2565b601f1984166200069b8662000437565b60005b82811015620006c5578489015182556001820191506020850194506020810190506200069e565b86831015620006e55784890151620006e1601f891682620005d5565b8355505b6001600288020188555050505b505050505050565b61238d806200070a6000396000f3fe608060405234801561001057600080fd5b50600436106101375760003560e01c806395d89b41116100b8578063b9f1a0e11161007c578063b9f1a0e114610366578063bec3fa1714610384578063c71daccb146103a0578063dd62ed3e146103be578063f0dda65c146103ee578063f2fde38b1461040a57610137565b806395d89b411461029a578063a3c0b95b146102b8578063a457c2d7146102ea578063a6e158f81461031a578063a9059cbb1461033657610137565b806339509351116100ff57806339509351146101f65780636d1b229d1461022657806370a0823114610242578063715018a6146102725780638da5cb5b1461027c57610137565b806306fdde031461013c578063095ea7b31461015a57806318160ddd1461018a57806323b872dd146101a8578063313ce567146101d8575b600080fd5b610144610426565b6040516101519190611598565b60405180910390f35b610174600480360381019061016f9190611653565b6104b8565b60405161018191906116ae565b60405180910390f35b6101926104db565b60405161019f91906116d8565b60405180910390f35b6101c260048036038101906101bd91906116f3565b6104e5565b6040516101cf91906116ae565b60405180910390f35b6101e0610514565b6040516101ed9190611762565b60405180910390f35b610210600480360381019061020b9190611653565b61051d565b60405161021d91906116ae565b60405180910390f35b610240600480360381019061023b919061177d565b610554565b005b61025c600480360381019061025791906117aa565b610561565b60405161026991906116d8565b60405180910390f35b61027a6105a9565b005b6102846105bd565b60405161029191906117e6565b60405180910390f35b6102a26105e7565b6040516102af9190611598565b60405180910390f35b6102d260048036038101906102cd919061177d565b610679565b6040516102e193929190611801565b60405180910390f35b61030460048036038101906102ff9190611653565b61073b565b60405161031191906116ae565b60405180910390f35b610334600480360381019061032f919061177d565b6107b2565b005b610350600480360381019061034b9190611653565b610900565b60405161035d91906116ae565b60405180910390f35b61036e610923565b60405161037b91906119aa565b60405180910390f35b61039e60048036038101906103999190611653565b610a28565b005b6103a8610a37565b6040516103b591906116d8565b60405180910390f35b6103d860048036038101906103d391906119cc565b610a47565b6040516103e591906116d8565b60405180910390f35b61040860048036038101906104039190611653565b610ace565b005b610424600480360381019061041f91906117aa565b610ae4565b005b60606003805461043590611a3b565b80601f016020809104026020016040519081016040528092919081815260200182805461046190611a3b565b80156104ae5780601f10610483576101008083540402835291602001916104ae565b820191906000526020600020905b81548152906001019060200180831161049157829003601f168201915b5050505050905090565b6000806104c3610b67565b90506104d0818585610b6f565b600191505092915050565b6000600254905090565b6000806104f0610b67565b90506104fd858285610d38565b610508858585610dc4565b60019150509392505050565b60006012905090565b600080610528610b67565b905061054981858561053a8589610a47565b6105449190611a9b565b610b6f565b600191505092915050565b61055e338261103a565b50565b60008060008373ffffffffffffffffffffffffffffffffffffffff1673ffffffffffffffffffffffffffffffffffffffff168152602001908152602001600020549050919050565b6105b1611207565b6105bb6000611285565b565b6000600560009054906101000a900473ffffffffffffffffffffffffffffffffffffffff16905090565b6060600480546105f690611a3b565b80601f016020809104026020016040519081016040528092919081815260200182805461062290611a3b565b801561066f5780601f106106445761010080835404028352916020019161066f565b820191906000526020600020905b81548152906001019060200180831161065257829003601f168201915b5050505050905090565b6006818154811061068957600080fd5b90600052602060002090600302016000915090508060000154908060010180546106b290611a3b565b80601f01602080910402602001604051908101604052809291908181526020018280546106de90611a3b565b801561072b5780601f106107005761010080835404028352916020019161072b565b820191906000526020600020905b81548152906001019060200180831161070e57829003601f168201915b5050505050908060020154905083565b600080610746610b67565b905060006107548286610a47565b905083811015610799576040517f08c379a000000000000000000000000000000000000000000000000000000000815260040161079090611b41565b60405180910390fd5b6107a68286868403610b6f565b60019250505092915050565b600181101580156107c857506006805490508111155b610807576040517f08c379a00000000000000000000000000000000000000000000000000000000081526004016107fe90611bad565b60405180910390fd5b600060066001836108189190611bcd565b8154811061082957610828611c01565b5b9060005260206000209060030201600201549050610847338261103a565b7f8fbe92affffdc7e52d46830e72495ccb220b6af27451f219985eeabe8a4eb14660066001846108779190611bcd565b8154811061088857610887611c01565b5b90600052602060002090600302016040516108a39190611d61565b60405180910390a160066001836108ba9190611bcd565b815481106108cb576108ca611c01565b5b90600052602060002090600302016000808201600090556001820160006108f291906114ab565b600282016000905550505050565b60008061090b610b67565b9050610918818585610dc4565b600191505092915050565b60606006805480602002602001604051908101604052809291908181526020016000905b82821015610a1f57838290600052602060002090600302016040518060600160405290816000820154815260200160018201805461098490611a3b565b80601f01602080910402602001604051908101604052809291908181526020018280546109b090611a3b565b80156109fd5780601f106109d2576101008083540402835291602001916109fd565b820191906000526020600020905b8154815290600101906020018083116109e057829003601f168201915b5050505050815260200160028201548152505081526020019060010190610947565b50505050905090565b610a33338383610dc4565b5050565b6000610a4233610561565b905090565b6000600160008473ffffffffffffffffffffffffffffffffffffffff1673ffffffffffffffffffffffffffffffffffffffff16815260200190815260200160002060008373ffffffffffffffffffffffffffffffffffffffff1673ffffffffffffffffffffffffffffffffffffffff16815260200190815260200160002054905092915050565b610ad6611207565b610ae0828261134b565b5050565b610aec611207565b600073ffffffffffffffffffffffffffffffffffffffff168173ffffffffffffffffffffffffffffffffffffffff1603610b5b576040517f08c379a0000000000000000000000000000000000000000000000000000000008152600401610b5290611df5565b60405180910390fd5b610b6481611285565b50565b600033905090565b600073ffffffffffffffffffffffffffffffffffffffff168373ffffffffffffffffffffffffffffffffffffffff1603610bde576040517f08c379a0000000000000000000000000000000000000000000000000000000008152600401610bd590611e87565b60405180910390fd5b600073ffffffffffffffffffffffffffffffffffffffff168273ffffffffffffffffffffffffffffffffffffffff1603610c4d576040517f08c379a0000000000000000000000000000000000000000000000000000000008152600401610c4490611f19565b60405180910390fd5b80600160008573ffffffffffffffffffffffffffffffffffffffff1673ffffffffffffffffffffffffffffffffffffffff16815260200190815260200160002060008473ffffffffffffffffffffffffffffffffffffffff1673ffffffffffffffffffffffffffffffffffffffff168152602001908152602001600020819055508173ffffffffffffffffffffffffffffffffffffffff168373ffffffffffffffffffffffffffffffffffffffff167f8c5be1e5ebec7d5bd14f71427d1e84f3dd0314c0f7b2291e5b200ac8c7c3b92583604051610d2b91906116d8565b60405180910390a3505050565b6000610d448484610a47565b90507fffffffffffffffffffffffffffffffffffffffffffffffffffffffffffffffff8114610dbe5781811015610db0576040517f08c379a0000000000000000000000000000000000000000000000000000000008152600401610da790611f85565b60405180910390fd5b610dbd8484848403610b6f565b5b50505050565b600073ffffffffffffffffffffffffffffffffffffffff168373ffffffffffffffffffffffffffffffffffffffff1603610e33576040517f08c379a0000000000000000000000000000000000000000000000000000000008152600401610e2a90612017565b60405180910390fd5b600073ffffffffffffffffffffffffffffffffffffffff168273ffffffffffffffffffffffffffffffffffffffff1603610ea2576040517f08c379a0000000000000000000000000000000000000000000000000000000008152600401610e99906120a9565b60405180910390fd5b610ead8383836114a1565b60008060008573ffffffffffffffffffffffffffffffffffffffff1673ffffffffffffffffffffffffffffffffffffffff16815260200190815260200160002054905081811015610f33576040517f08c379a0000000000000000000000000000000000000000000000000000000008152600401610f2a9061213b565b60405180910390fd5b8181036000808673ffffffffffffffffffffffffffffffffffffffff1673ffffffffffffffffffffffffffffffffffffffff16815260200190815260200160002081905550816000808573ffffffffffffffffffffffffffffffffffffffff1673ffffffffffffffffffffffffffffffffffffffff168152602001908152602001600020600082825401925050819055508273ffffffffffffffffffffffffffffffffffffffff168473ffffffffffffffffffffffffffffffffffffffff167fddf252ad1be2c89b69c2b068fc378daa952ba7f163c4a11628f55a4df523b3ef8460405161102191906116d8565b60405180910390a36110348484846114a6565b50505050565b600073ffffffffffffffffffffffffffffffffffffffff168273ffffffffffffffffffffffffffffffffffffffff16036110a9576040517f08c379a00000000000000000000000000000000000000000000000000000000081526004016110a0906121cd565b60405180910390fd5b6110b5826000836114a1565b60008060008473ffffffffffffffffffffffffffffffffffffffff1673ffffffffffffffffffffffffffffffffffffffff1681526020019081526020016000205490508181101561113b576040517f08c379a00000000000000000000000000000000000000000000000000000000081526004016111329061225f565b60405180910390fd5b8181036000808573ffffffffffffffffffffffffffffffffffffffff1673ffffffffffffffffffffffffffffffffffffffff1681526020019081526020016000208190555081600260008282540392505081905550600073ffffffffffffffffffffffffffffffffffffffff168373ffffffffffffffffffffffffffffffffffffffff167fddf252ad1be2c89b69c2b068fc378daa952ba7f163c4a11628f55a4df523b3ef846040516111ee91906116d8565b60405180910390a3611202836000846114a6565b505050565b61120f610b67565b73ffffffffffffffffffffffffffffffffffffffff1661122d6105bd565b73ffffffffffffffffffffffffffffffffffffffff1614611283576040517f08c379a000000000000000000000000000000000000000000000000000000000815260040161127a906122cb565b60405180910390fd5b565b6000600560009054906101000a900473ffffffffffffffffffffffffffffffffffffffff16905081600560006101000a81548173ffffffffffffffffffffffffffffffffffffffff021916908373ffffffffffffffffffffffffffffffffffffffff1602179055508173ffffffffffffffffffffffffffffffffffffffff168173ffffffffffffffffffffffffffffffffffffffff167f8be0079c531659141344cd1fd0a4f28419497f9722a3daafe3b4186f6b6457e060405160405180910390a35050565b600073ffffffffffffffffffffffffffffffffffffffff168273ffffffffffffffffffffffffffffffffffffffff16036113ba576040517f08c379a00000000000000000000000000000000000000000000000000000000081526004016113b190612337565b60405180910390fd5b6113c6600083836114a1565b80600260008282546113d89190611a9b565b92505081905550806000808473ffffffffffffffffffffffffffffffffffffffff1673ffffffffffffffffffffffffffffffffffffffff168152602001908152602001600020600082825401925050819055508173ffffffffffffffffffffffffffffffffffffffff16600073ffffffffffffffffffffffffffffffffffffffff167fddf252ad1be2c89b69c2b068fc378daa952ba7f163c4a11628f55a4df523b3ef8360405161148991906116d8565b60405180910390a361149d600083836114a6565b5050565b505050565b505050565b5080546114b790611a3b565b6000825580601f106114c957506114e8565b601f0160209004906000526020600020908101906114e791906114eb565b5b50565b5b808211156115045760008160009055506001016114ec565b5090565b600081519050919050565b600082825260208201905092915050565b60005b83811015611542578082015181840152602081019050611527565b60008484015250505050565b6000601f19601f8301169050919050565b600061156a82611508565b6115748185611513565b9350611584818560208601611524565b61158d8161154e565b840191505092915050565b600060208201905081810360008301526115b2818461155f565b905092915050565b600080fd5b600073ffffffffffffffffffffffffffffffffffffffff82169050919050565b60006115ea826115bf565b9050919050565b6115fa816115df565b811461160557600080fd5b50565b600081359050611617816115f1565b92915050565b6000819050919050565b6116308161161d565b811461163b57600080fd5b50565b60008135905061164d81611627565b92915050565b6000806040838503121561166a576116696115ba565b5b600061167885828601611608565b92505060206116898582860161163e565b9150509250929050565b60008115159050919050565b6116a881611693565b82525050565b60006020820190506116c3600083018461169f565b92915050565b6116d28161161d565b82525050565b60006020820190506116ed60008301846116c9565b92915050565b60008060006060848603121561170c5761170b6115ba565b5b600061171a86828701611608565b935050602061172b86828701611608565b925050604061173c8682870161163e565b9150509250925092565b600060ff82169050919050565b61175c81611746565b82525050565b60006020820190506117776000830184611753565b92915050565b600060208284031215611793576117926115ba565b5b60006117a18482850161163e565b91505092915050565b6000602082840312156117c0576117bf6115ba565b5b60006117ce84828501611608565b91505092915050565b6117e0816115df565b82525050565b60006020820190506117fb60008301846117d7565b92915050565b600060608201905061181660008301866116c9565b8181036020830152611828818561155f565b905061183760408301846116c9565b949350505050565b600081519050919050565b600082825260208201905092915050565b6000819050602082019050919050565b6118748161161d565b82525050565b600082825260208201905092915050565b600061189682611508565b6118a0818561187a565b93506118b0818560208601611524565b6118b98161154e565b840191505092915050565b60006060830160008301516118dc600086018261186b565b50602083015184820360208601526118f4828261188b565b9150506040830151611909604086018261186b565b508091505092915050565b600061192083836118c4565b905092915050565b6000602082019050919050565b60006119408261183f565b61194a818561184a565b93508360208202850161195c8561185b565b8060005b8581101561199857848403895281516119798582611914565b945061198483611928565b925060208a01995050600181019050611960565b50829750879550505050505092915050565b600060208201905081810360008301526119c48184611935565b905092915050565b600080604083850312156119e3576119e26115ba565b5b60006119f185828601611608565b9250506020611a0285828601611608565b9150509250929050565b7f4e487b7100000000000000000000000000000000000000000000000000000000600052602260045260246000fd5b60006002820490506001821680611a5357607f821691505b602082108103611a6657611a65611a0c565b5b50919050565b7f4e487b7100000000000000000000000000000000000000000000000000000000600052601160045260246000fd5b6000611aa68261161d565b9150611ab18361161d565b9250828201905080821115611ac957611ac8611a6c565b5b92915050565b7f45524332303a2064656372656173656420616c6c6f77616e63652062656c6f7760008201527f207a65726f000000000000000000000000000000000000000000000000000000602082015250565b6000611b2b602583611513565b9150611b3682611acf565b604082019050919050565b60006020820190508181036000830152611b5a81611b1e565b9050919050565b7f496e76616c69642043686f696365000000000000000000000000000000000000600082015250565b6000611b97600e83611513565b9150611ba282611b61565b602082019050919050565b60006020820190508181036000830152611bc681611b8a565b9050919050565b6000611bd88261161d565b9150611be38361161d565b9250828203905081811115611bfb57611bfa611a6c565b5b92915050565b7f4e487b7100000000000000000000000000000000000000000000000000000000600052603260045260246000fd5b60008160001c9050919050565b6000819050919050565b6000611c5a611c5583611c30565b611c3d565b9050919050565b60008190508160005260206000209050919050565b60008154611c8381611a3b565b611c8d818661187a565b94506001821660008114611ca85760018114611cbe57611cf1565b60ff198316865281151560200286019350611cf1565b611cc785611c61565b60005b83811015611ce957815481890152600182019150602081019050611cca565b808801955050505b50505092915050565b6000606083016000808401549050611d1181611c47565b611d1e600087018261186b565b50600184018583036020870152611d358382611c76565b92505060028401549050611d4881611c47565b611d55604087018261186b565b50819250505092915050565b60006020820190508181036000830152611d7b8184611cfa565b905092915050565b7f4f776e61626c653a206e6577206f776e657220697320746865207a65726f206160008201527f6464726573730000000000000000000000000000000000000000000000000000602082015250565b6000611ddf602683611513565b9150611dea82611d83565b604082019050919050565b60006020820190508181036000830152611e0e81611dd2565b9050919050565b7f45524332303a20617070726f76652066726f6d20746865207a65726f2061646460008201527f7265737300000000000000000000000000000000000000000000000000000000602082015250565b6000611e71602483611513565b9150611e7c82611e15565b604082019050919050565b60006020820190508181036000830152611ea081611e64565b9050919050565b7f45524332303a20617070726f766520746f20746865207a65726f20616464726560008201527f7373000000000000000000000000000000000000000000000000000000000000602082015250565b6000611f03602283611513565b9150611f0e82611ea7565b604082019050919050565b60006020820190508181036000830152611f3281611ef6565b9050919050565b7f45524332303a20696e73756666696369656e7420616c6c6f77616e6365000000600082015250565b6000611f6f601d83611513565b9150611f7a82611f39565b602082019050919050565b60006020820190508181036000830152611f9e81611f62565b9050919050565b7f45524332303a207472616e736665722066726f6d20746865207a65726f20616460008201527f6472657373000000000000000000000000000000000000000000000000000000602082015250565b6000612001602583611513565b915061200c82611fa5565b604082019050919050565b6000602082019050818103600083015261203081611ff4565b9050919050565b7f45524332303a207472616e7366657220746f20746865207a65726f206164647260008201527f6573730000000000000000000000000000000000000000000000000000000000602082015250565b6000612093602383611513565b915061209e82612037565b604082019050919050565b600060208201905081810360008301526120c281612086565b9050919050565b7f45524332303a207472616e7366657220616d6f756e742065786365656473206260008201527f616c616e63650000000000000000000000000000000000000000000000000000602082015250565b6000612125602683611513565b9150612130826120c9565b604082019050919050565b6000602082019050818103600083015261215481612118565b9050919050565b7f45524332303a206275726e2066726f6d20746865207a65726f2061646472657360008201527f7300000000000000000000000000000000000000000000000000000000000000602082015250565b60006121b7602183611513565b91506121c28261215b565b604082019050919050565b600060208201905081810360008301526121e6816121aa565b9050919050565b7f45524332303a206275726e20616d6f756e7420657863656564732062616c616e60008201527f6365000000000000000000000000000000000000000000000000000000000000602082015250565b6000612249602283611513565b9150612254826121ed565b604082019050919050565b600060208201905081810360008301526122788161223c565b9050919050565b7f4f776e61626c653a2063616c6c6572206973206e6f7420746865206f776e6572600082015250565b60006122b5602083611513565b91506122c08261227f565b602082019050919050565b600060208201905081810360008301526122e4816122a8565b9050919050565b7f45524332303a206d696e7420746f20746865207a65726f206164647265737300600082015250565b6000612321601f83611513565b915061232c826122eb565b602082019050919050565b6000602082019050818103600083015261235081612314565b905091905056fea2646970667358221220b317991dbcdee5a0727802911c47b9c8ef6aa082470d6f2e580adeb6ae8c1f6f64736f6c63430008120033",
  "linkReferences": {},
  "deployedLinkReferences": {}
}