{
  "_format": "hh-sol-artifact-1",
  "contractName": "DegenToken",
  "sourceName": "contracts/DegenToken.sol",
  "abi": [
    {
      "inputs": [],
      "stateMutability": "nonpayable",
      "type": "constructor"
    },
    {
      "anonymous": false,
      "inputs": [
        {
          "indexed": true,
          "internalType": "address",
          "name": "owner",
          "type": "address"
        },
        {
          "indexed": true,
          "internalType": "address",
          "name": "spender",
          "type": "address"
        },
        {
          "indexed": false,
          "internalType": "uint256",
          "name": "value",
          "type": "uint256"
        }
      ],
      "name": "Approval",
      "type": "event"
    },
    {
      "anonymous": false,
      "inputs": [
        {
          "indexed": true,
          "internalType": "address",
          "name": "previousOwner",
          "type": "address"
        },
        {
          "indexed": true,
          "internalType": "address",
          "name": "newOwner",
          "type": "address"
        }
      ],
      "name": "OwnershipTransferred",
      "type": "event"
    },
    {
      "anonymous": false,
      "inputs": [
        {
          "indexed": true,
          "internalType": "address",
          "name": "from",
          "type": "address"
        },
        {
          "indexed": true,
          "internalType": "address",
          "name": "to",
          "type": "address"
        },
        {
          "indexed": false,
          "internalType": "uint256",
          "name": "value",
          "type": "uint256"
        }
      ],
      "name": "Transfer",
      "type": "event"
    },
    {
      "inputs": [
        {
          "internalType": "address",
          "name": "owner",
          "type": "address"
        },
        {
          "internalType": "address",
          "name": "spender",
          "type": "address"
        }
      ],
      "name": "allowance",
      "outputs": [
        {
          "internalType": "uint256",
          "name": "",
          "type": "uint256"
        }
      ],
      "stateMutability": "view",
      "type": "function"
    },
    {
      "inputs": [
        {
          "internalType": "address",
          "name": "spender",
          "type": "address"
        },
        {
          "internalType": "uint256",
          "name": "amount",
          "type": "uint256"
        }
      ],
      "name": "approve",
      "outputs": [
        {
          "internalType": "bool",
          "name": "",
          "type": "bool"
        }
      ],
      "stateMutability": "nonpayable",
      "type": "function"
    },
    {
      "inputs": [
        {
          "internalType": "address",
          "name": "account",
          "type": "address"
        }
      ],
      "name": "balanceOf",
      "outputs": [
        {
          "internalType": "uint256",
          "name": "",
          "type": "uint256"
        }
      ],
      "stateMutability": "view",
      "type": "function"
    },
    {
      "inputs": [
        {
          "internalType": "uint256",
          "name": "amount",
          "type": "uint256"
        }
      ],
      "name": "burnTokens",
      "outputs": [],
      "stateMutability": "nonpayable",
      "type": "function"
    },
    {
      "inputs": [],
      "name": "checkBalance",
      "outputs": [
        {
          "internalType": "uint256",
          "name": "",
          "type": "uint256"
        }
      ],
      "stateMutability": "view",
      "type": "function"
    },
    {
      "inputs": [],
      "name": "decimals",
      "outputs": [
        {
          "internalType": "uint8",
          "name": "",
          "type": "uint8"
        }
      ],
      "stateMutability": "view",
      "type": "function"
    },
    {
      "inputs": [
        {
          "internalType": "address",
          "name": "spender",
          "type": "address"
        },
        {
          "internalType": "uint256",
          "name": "subtractedValue",
          "type": "uint256"
        }
      ],
      "name": "decreaseAllowance",
      "outputs": [
        {
          "internalType": "bool",
          "name": "",
          "type": "bool"
        }
      ],
      "stateMutability": "nonpayable",
      "type": "function"
    },
    {
      "inputs": [
        {
          "internalType": "address",
          "name": "spender",
          "type": "address"
        },
        {
          "internalType": "uint256",
          "name": "addedValue",
          "type": "uint256"
        }
      ],
      "name": "increaseAllowance",
      "outputs": [
        {
          "internalType": "bool",
          "name": "",
          "type": "bool"
        }
      ],
      "stateMutability": "nonpayable",
      "type": "function"
    },
    {
      "inputs": [
        {
          "internalType": "address",
          "name": "to",
          "type": "address"
        },
        {
          "internalType": "uint256",
          "name": "amount",
          "type": "uint256"
        }
      ],
      "name": "mintTokens",
      "outputs": [],
      "stateMutability": "nonpayable",
      "type": "function"
    },
    {
      "inputs": [],
      "name": "name",
      "outputs": [
        {
          "internalType": "string",
          "name": "",
          "type": "string"
        }
      ],
      "stateMutability": "view",
      "type": "function"
    },
    {
      "inputs": [],
      "name": "owner",
      "outputs": [
        {
          "internalType": "address",
          "name": "",
          "type": "address"
        }
      ],
      "stateMutability": "view",
      "type": "function"
    },
    {
      "inputs": [
        {
          "internalType": "uint256",
          "name": "amount",
          "type": "uint256"
        }
      ],
      "name": "redeemTokens",
      "outputs": [],
      "stateMutability": "nonpayable",
      "type": "function"
    },
    {
      "inputs": [],
      "name": "renounceOwnership",
      "outputs": [],
      "stateMutability": "nonpayable",
      "type": "function"
    },
    {
      "inputs": [],
      "name": "symbol",
      "outputs": [
        {
          "internalType": "string",
          "name": "",
          "type": "string"
        }
      ],
      "stateMutability": "view",
      "type": "function"
    },
    {
      "inputs": [],
      "name": "totalSupply",
      "outputs": [
        {
          "internalType": "uint256",
          "name": "",
          "type": "uint256"
        }
      ],
      "stateMutability": "view",
      "type": "function"
    },
    {
      "inputs": [
        {
          "internalType": "address",
          "name": "to",
          "type": "address"
        },
        {
          "internalType": "uint256",
          "name": "amount",
          "type": "uint256"
        }
      ],
      "name": "transfer",
      "outputs": [
        {
          "internalType": "bool",
          "name": "",
          "type": "bool"
        }
      ],
      "stateMutability": "nonpayable",
      "type": "function"
    },
    {
      "inputs": [
        {
          "internalType": "address",
          "name": "from",
          "type": "address"
        },
        {
          "internalType": "address",
          "name": "to",
          "type": "address"
        },
        {
          "internalType": "uint256",
          "name": "amount",
          "type": "uint256"
        }
      ],
      "name": "transferFrom",
      "outputs": [
        {
          "internalType": "bool",
          "name": "",
          "type": "bool"
        }
      ],
      "stateMutability": "nonpayable",
      "type": "function"
    },
    {
      "inputs": [
        {
          "internalType": "address",
          "name": "newOwner",
          "type": "address"
        }
      ],
      "name": "transferOwnership",
      "outputs": [],
      "stateMutability": "nonpayable",
      "type": "function"
    },
    {
      "inputs": [
        {
          "internalType": "address",
          "name": "recipient",
          "type": "address"
        },
        {
          "internalType": "uint256",
          "name": "amount",
          "type": "uint256"
        }
      ],
      "name": "transferTokens",
      "outputs": [],
      "stateMutability": "nonpayable",
      "type": "function"
    }
  ],
  "bytecode": "0x60806040523480156200001157600080fd5b506040518060400160405280600581526020017f446567656e0000000000000000000000000000000000000000000000000000008152506040518060400160405280600381526020017f44474e000000000000000000000000000000000000000000000000000000000081525081600390816200008f919062000412565b508060049081620000a1919062000412565b505050620000c4620000b8620000ca60201b60201c565b620000d260201b60201c565b620004f9565b600033905090565b6000600560009054906101000a900473ffffffffffffffffffffffffffffffffffffffff16905081600560006101000a81548173ffffffffffffffffffffffffffffffffffffffff021916908373ffffffffffffffffffffffffffffffffffffffff1602179055508173ffffffffffffffffffffffffffffffffffffffff168173ffffffffffffffffffffffffffffffffffffffff167f8be0079c531659141344cd1fd0a4f28419497f9722a3daafe3b4186f6b6457e060405160405180910390a35050565b600081519050919050565b7f4e487b7100000000000000000000000000000000000000000000000000000000600052604160045260246000fd5b7f4e487b7100000000000000000000000000000000000000000000000000000000600052602260045260246000fd5b600060028204905060018216806200021a57607f821691505b60208210810362000230576200022f620001d2565b5b50919050565b60008190508160005260206000209050919050565b60006020601f8301049050919050565b600082821b905092915050565b6000600883026200029a7fffffffffffffffffffffffffffffffffffffffffffffffffffffffffffffffff826200025b565b620002a686836200025b565b95508019841693508086168417925050509392505050565b6000819050919050565b6000819050919050565b6000620002f3620002ed620002e784620002be565b620002c8565b620002be565b9050919050565b6000819050919050565b6200030f83620002d2565b620003276200031e82620002fa565b84845462000268565b825550505050565b600090565b6200033e6200032f565b6200034b81848462000304565b505050565b5b8181101562000373576200036760008262000334565b60018101905062000351565b5050565b601f821115620003c2576200038c8162000236565b62000397846200024b565b81016020851015620003a7578190505b620003bf620003b6856200024b565b83018262000350565b50505b505050565b600082821c905092915050565b6000620003e760001984600802620003c7565b1980831691505092915050565b6000620004028383620003d4565b9150826002028217905092915050565b6200041d8262000198565b67ffffffffffffffff811115620004395762000438620001a3565b5b62000445825462000201565b6200045282828562000377565b600060209050601f8311600181146200048a576000841562000475578287015190505b620004818582620003f4565b865550620004f1565b601f1984166200049a8662000236565b60005b82811015620004c4578489015182556001820191506020850194506020810190506200049d565b86831015620004e45784890151620004e0601f891682620003d4565b8355505b6001600288020188555050505b505050505050565b611bd580620005096000396000f3fe608060405234801561001057600080fd5b50600436106101215760003560e01c80638da5cb5b116100ad578063bec3fa1711610071578063bec3fa171461031e578063c71daccb1461033a578063dd62ed3e14610358578063f0dda65c14610388578063f2fde38b146103a457610121565b80638da5cb5b1461026657806395d89b4114610284578063a457c2d7146102a2578063a6e158f8146102d2578063a9059cbb146102ee57610121565b8063313ce567116100f4578063313ce567146101c257806339509351146101e05780636d1b229d1461021057806370a082311461022c578063715018a61461025c57610121565b806306fdde0314610126578063095ea7b31461014457806318160ddd1461017457806323b872dd14610192575b600080fd5b61012e6103c0565b60405161013b91906111cd565b60405180910390f35b61015e60048036038101906101599190611288565b610452565b60405161016b91906112e3565b60405180910390f35b61017c610475565b604051610189919061130d565b60405180910390f35b6101ac60048036038101906101a79190611328565b61047f565b6040516101b991906112e3565b60405180910390f35b6101ca6104ae565b6040516101d79190611397565b60405180910390f35b6101fa60048036038101906101f59190611288565b6104b7565b60405161020791906112e3565b60405180910390f35b61022a600480360381019061022591906113b2565b6104ee565b005b610246600480360381019061024191906113df565b6104fb565b604051610253919061130d565b60405180910390f35b610264610543565b005b61026e610557565b60405161027b919061141b565b60405180910390f35b61028c610581565b60405161029991906111cd565b60405180910390f35b6102bc60048036038101906102b79190611288565b610613565b6040516102c991906112e3565b60405180910390f35b6102ec60048036038101906102e791906113b2565b61068a565b005b61030860048036038101906103039190611288565b610697565b60405161031591906112e3565b60405180910390f35b61033860048036038101906103339190611288565b6106ba565b005b6103426106c9565b60405161034f919061130d565b60405180910390f35b610372600480360381019061036d9190611436565b6106d9565b60405161037f919061130d565b60405180910390f35b6103a2600480360381019061039d9190611288565b610760565b005b6103be60048036038101906103b991906113df565b610776565b005b6060600380546103cf906114a5565b80601f01602080910402602001604051908101604052809291908181526020018280546103fb906114a5565b80156104485780601f1061041d57610100808354040283529160200191610448565b820191906000526020600020905b81548152906001019060200180831161042b57829003601f168201915b5050505050905090565b60008061045d6107f9565b905061046a818585610801565b600191505092915050565b6000600254905090565b60008061048a6107f9565b90506104978582856109ca565b6104a2858585610a56565b60019150509392505050565b60006012905090565b6000806104c26107f9565b90506104e38185856104d485896106d9565b6104de9190611505565b610801565b600191505092915050565b6104f83382610ccc565b50565b60008060008373ffffffffffffffffffffffffffffffffffffffff1673ffffffffffffffffffffffffffffffffffffffff168152602001908152602001600020549050919050565b61054b610e99565b6105556000610f17565b565b6000600560009054906101000a900473ffffffffffffffffffffffffffffffffffffffff16905090565b606060048054610590906114a5565b80601f01602080910402602001604051908101604052809291908181526020018280546105bc906114a5565b80156106095780601f106105de57610100808354040283529160200191610609565b820191906000526020600020905b8154815290600101906020018083116105ec57829003601f168201915b5050505050905090565b60008061061e6107f9565b9050600061062c82866106d9565b905083811015610671576040517f08c379a0000000000000000000000000000000000000000000000000000000008152600401610668906115ab565b60405180910390fd5b61067e8286868403610801565b60019250505092915050565b6106943382610ccc565b50565b6000806106a26107f9565b90506106af818585610a56565b600191505092915050565b6106c5338383610a56565b5050565b60006106d4336104fb565b905090565b6000600160008473ffffffffffffffffffffffffffffffffffffffff1673ffffffffffffffffffffffffffffffffffffffff16815260200190815260200160002060008373ffffffffffffffffffffffffffffffffffffffff1673ffffffffffffffffffffffffffffffffffffffff16815260200190815260200160002054905092915050565b610768610e99565b6107728282610fdd565b5050565b61077e610e99565b600073ffffffffffffffffffffffffffffffffffffffff168173ffffffffffffffffffffffffffffffffffffffff16036107ed576040517f08c379a00000000000000000000000000000000000000000000000000000000081526004016107e49061163d565b60405180910390fd5b6107f681610f17565b50565b600033905090565b600073ffffffffffffffffffffffffffffffffffffffff168373ffffffffffffffffffffffffffffffffffffffff1603610870576040517f08c379a0000000000000000000000000000000000000000000000000000000008152600401610867906116cf565b60405180910390fd5b600073ffffffffffffffffffffffffffffffffffffffff168273ffffffffffffffffffffffffffffffffffffffff16036108df576040517f08c379a00000000000000000000000000000000000000000000000000000000081526004016108d690611761565b60405180910390fd5b80600160008573ffffffffffffffffffffffffffffffffffffffff1673ffffffffffffffffffffffffffffffffffffffff16815260200190815260200160002060008473ffffffffffffffffffffffffffffffffffffffff1673ffffffffffffffffffffffffffffffffffffffff168152602001908152602001600020819055508173ffffffffffffffffffffffffffffffffffffffff168373ffffffffffffffffffffffffffffffffffffffff167f8c5be1e5ebec7d5bd14f71427d1e84f3dd0314c0f7b2291e5b200ac8c7c3b925836040516109bd919061130d565b60405180910390a3505050565b60006109d684846106d9565b90507fffffffffffffffffffffffffffffffffffffffffffffffffffffffffffffffff8114610a505781811015610a42576040517f08c379a0000000000000000000000000000000000000000000000000000000008152600401610a39906117cd565b60405180910390fd5b610a4f8484848403610801565b5b50505050565b600073ffffffffffffffffffffffffffffffffffffffff168373ffffffffffffffffffffffffffffffffffffffff1603610ac5576040517f08c379a0000000000000000000000000000000000000000000000000000000008152600401610abc9061185f565b60405180910390fd5b600073ffffffffffffffffffffffffffffffffffffffff168273ffffffffffffffffffffffffffffffffffffffff1603610b34576040517f08c379a0000000000000000000000000000000000000000000000000000000008152600401610b2b906118f1565b60405180910390fd5b610b3f838383611133565b60008060008573ffffffffffffffffffffffffffffffffffffffff1673ffffffffffffffffffffffffffffffffffffffff16815260200190815260200160002054905081811015610bc5576040517f08c379a0000000000000000000000000000000000000000000000000000000008152600401610bbc90611983565b60405180910390fd5b8181036000808673ffffffffffffffffffffffffffffffffffffffff1673ffffffffffffffffffffffffffffffffffffffff16815260200190815260200160002081905550816000808573ffffffffffffffffffffffffffffffffffffffff1673ffffffffffffffffffffffffffffffffffffffff168152602001908152602001600020600082825401925050819055508273ffffffffffffffffffffffffffffffffffffffff168473ffffffffffffffffffffffffffffffffffffffff167fddf252ad1be2c89b69c2b068fc378daa952ba7f163c4a11628f55a4df523b3ef84604051610cb3919061130d565b60405180910390a3610cc6848484611138565b50505050565b600073ffffffffffffffffffffffffffffffffffffffff168273ffffffffffffffffffffffffffffffffffffffff1603610d3b576040517f08c379a0000000000000000000000000000000000000000000000000000000008152600401610d3290611a15565b60405180910390fd5b610d4782600083611133565b60008060008473ffffffffffffffffffffffffffffffffffffffff1673ffffffffffffffffffffffffffffffffffffffff16815260200190815260200160002054905081811015610dcd576040517f08c379a0000000000000000000000000000000000000000000000000000000008152600401610dc490611aa7565b60405180910390fd5b8181036000808573ffffffffffffffffffffffffffffffffffffffff1673ffffffffffffffffffffffffffffffffffffffff1681526020019081526020016000208190555081600260008282540392505081905550600073ffffffffffffffffffffffffffffffffffffffff168373ffffffffffffffffffffffffffffffffffffffff167fddf252ad1be2c89b69c2b068fc378daa952ba7f163c4a11628f55a4df523b3ef84604051610e80919061130d565b60405180910390a3610e9483600084611138565b505050565b610ea16107f9565b73ffffffffffffffffffffffffffffffffffffffff16610ebf610557565b73ffffffffffffffffffffffffffffffffffffffff1614610f15576040517f08c379a0000000000000000000000000000000000000000000000000000000008152600401610f0c90611b13565b60405180910390fd5b565b6000600560009054906101000a900473ffffffffffffffffffffffffffffffffffffffff16905081600560006101000a81548173ffffffffffffffffffffffffffffffffffffffff021916908373ffffffffffffffffffffffffffffffffffffffff1602179055508173ffffffffffffffffffffffffffffffffffffffff168173ffffffffffffffffffffffffffffffffffffffff167f8be0079c531659141344cd1fd0a4f28419497f9722a3daafe3b4186f6b6457e060405160405180910390a35050565b600073ffffffffffffffffffffffffffffffffffffffff168273ffffffffffffffffffffffffffffffffffffffff160361104c576040517f08c379a000000000000000000000000000000000000000000000000000000000815260040161104390611b7f565b60405180910390fd5b61105860008383611133565b806002600082825461106a9190611505565b92505081905550806000808473ffffffffffffffffffffffffffffffffffffffff1673ffffffffffffffffffffffffffffffffffffffff168152602001908152602001600020600082825401925050819055508173ffffffffffffffffffffffffffffffffffffffff16600073ffffffffffffffffffffffffffffffffffffffff167fddf252ad1be2c89b69c2b068fc378daa952ba7f163c4a11628f55a4df523b3ef8360405161111b919061130d565b60405180910390a361112f60008383611138565b5050565b505050565b505050565b600081519050919050565b600082825260208201905092915050565b60005b8381101561117757808201518184015260208101905061115c565b60008484015250505050565b6000601f19601f8301169050919050565b600061119f8261113d565b6111a98185611148565b93506111b9818560208601611159565b6111c281611183565b840191505092915050565b600060208201905081810360008301526111e78184611194565b905092915050565b600080fd5b600073ffffffffffffffffffffffffffffffffffffffff82169050919050565b600061121f826111f4565b9050919050565b61122f81611214565b811461123a57600080fd5b50565b60008135905061124c81611226565b92915050565b6000819050919050565b61126581611252565b811461127057600080fd5b50565b6000813590506112828161125c565b92915050565b6000806040838503121561129f5761129e6111ef565b5b60006112ad8582860161123d565b92505060206112be85828601611273565b9150509250929050565b60008115159050919050565b6112dd816112c8565b82525050565b60006020820190506112f860008301846112d4565b92915050565b61130781611252565b82525050565b600060208201905061132260008301846112fe565b92915050565b600080600060608486031215611341576113406111ef565b5b600061134f8682870161123d565b93505060206113608682870161123d565b925050604061137186828701611273565b9150509250925092565b600060ff82169050919050565b6113918161137b565b82525050565b60006020820190506113ac6000830184611388565b92915050565b6000602082840312156113c8576113c76111ef565b5b60006113d684828501611273565b91505092915050565b6000602082840312156113f5576113f46111ef565b5b60006114038482850161123d565b91505092915050565b61141581611214565b82525050565b6000602082019050611430600083018461140c565b92915050565b6000806040838503121561144d5761144c6111ef565b5b600061145b8582860161123d565b925050602061146c8582860161123d565b9150509250929050565b7f4e487b7100000000000000000000000000000000000000000000000000000000600052602260045260246000fd5b600060028204905060018216806114bd57607f821691505b6020821081036114d0576114cf611476565b5b50919050565b7f4e487b7100000000000000000000000000000000000000000000000000000000600052601160045260246000fd5b600061151082611252565b915061151b83611252565b9250828201905080821115611533576115326114d6565b5b92915050565b7f45524332303a2064656372656173656420616c6c6f77616e63652062656c6f7760008201527f207a65726f000000000000000000000000000000000000000000000000000000602082015250565b6000611595602583611148565b91506115a082611539565b604082019050919050565b600060208201905081810360008301526115c481611588565b9050919050565b7f4f776e61626c653a206e6577206f776e657220697320746865207a65726f206160008201527f6464726573730000000000000000000000000000000000000000000000000000602082015250565b6000611627602683611148565b9150611632826115cb565b604082019050919050565b600060208201905081810360008301526116568161161a565b9050919050565b7f45524332303a20617070726f76652066726f6d20746865207a65726f2061646460008201527f7265737300000000000000000000000000000000000000000000000000000000602082015250565b60006116b9602483611148565b91506116c48261165d565b604082019050919050565b600060208201905081810360008301526116e8816116ac565b9050919050565b7f45524332303a20617070726f766520746f20746865207a65726f20616464726560008201527f7373000000000000000000000000000000000000000000000000000000000000602082015250565b600061174b602283611148565b9150611756826116ef565b604082019050919050565b6000602082019050818103600083015261177a8161173e565b9050919050565b7f45524332303a20696e73756666696369656e7420616c6c6f77616e6365000000600082015250565b60006117b7601d83611148565b91506117c282611781565b602082019050919050565b600060208201905081810360008301526117e6816117aa565b9050919050565b7f45524332303a207472616e736665722066726f6d20746865207a65726f20616460008201527f6472657373000000000000000000000000000000000000000000000000000000602082015250565b6000611849602583611148565b9150611854826117ed565b604082019050919050565b600060208201905081810360008301526118788161183c565b9050919050565b7f45524332303a207472616e7366657220746f20746865207a65726f206164647260008201527f6573730000000000000000000000000000000000000000000000000000000000602082015250565b60006118db602383611148565b91506118e68261187f565b604082019050919050565b6000602082019050818103600083015261190a816118ce565b9050919050565b7f45524332303a207472616e7366657220616d6f756e742065786365656473206260008201527f616c616e63650000000000000000000000000000000000000000000000000000602082015250565b600061196d602683611148565b915061197882611911565b604082019050919050565b6000602082019050818103600083015261199c81611960565b9050919050565b7f45524332303a206275726e2066726f6d20746865207a65726f2061646472657360008201527f7300000000000000000000000000000000000000000000000000000000000000602082015250565b60006119ff602183611148565b9150611a0a826119a3565b604082019050919050565b60006020820190508181036000830152611a2e816119f2565b9050919050565b7f45524332303a206275726e20616d6f756e7420657863656564732062616c616e60008201527f6365000000000000000000000000000000000000000000000000000000000000602082015250565b6000611a91602283611148565b9150611a9c82611a35565b604082019050919050565b60006020820190508181036000830152611ac081611a84565b9050919050565b7f4f776e61626c653a2063616c6c6572206973206e6f7420746865206f776e6572600082015250565b6000611afd602083611148565b9150611b0882611ac7565b602082019050919050565b60006020820190508181036000830152611b2c81611af0565b9050919050565b7f45524332303a206d696e7420746f20746865207a65726f206164647265737300600082015250565b6000611b69601f83611148565b9150611b7482611b33565b602082019050919050565b60006020820190508181036000830152611b9881611b5c565b905091905056fea2646970667358221220a53da38813c5a54f32a3508a82e7bea25aa2f7029ec77e269a7cf744d66ed34464736f6c63430008120033",
  "linkReferences": {},
  "deployedLinkReferences": {}
}